:100000000C947F010C94C8010C94C8010C94C80195
:100010000C94C8010C94C8010C94C8010C94C8013C
:100020000C94C8010C94C8010C94C61D0C949E1E1F
:100030000C94EB140C94C8010C94C8010C94C801E6
:100040000C94C8010C94C8010C94C8010C94C8010C
:100050000C94C8010C9436150C94C8010C94C8017A
:100060000C94C8010C94C8010C94C8010C94C801EC
:100070000C94C8010C94C8010C94C8010C94C801DC
:100080000C94C8010C94C8010C94C8010C94C801CC
:100090000C94C8010C94C8013A003E00420035029D
:1000A0001E021F0220022102220223022402250234
:1000B000260227022D022E024C002F0230023102AE
:1000C0003B003F00430029001E001F0020002100CC
:1000D0002200230024002500260027002D002E00EA
:1000E0002A004A004D004B003C00400044002B0019
:1000F00014001A000800150017001C0018000C005E
:10010000120013002F0030003100330234024E0081
:100110003D004100450039000400160007000900B9
:100120000A000B000D000E000F0033003400280001
:100130002700240025002600460047004800E10073
:100140001D001B00060019000500110010003602FA
:1001500037023802E5005200270021002200230068
:100160001B0106011901E000E300E2002C002C0055
:1001700000002C002C0036003700380050005100E1
:100180004F001E001F002000040330000000080381
:1001900062006F00700000001603660072007500B8
:1001A0006900740079006B00650065006200000062
:1001B0000403090409023B00020100A0FA0904003B
:1001C0000001030101000921110100012240000783
:1001D00005810308000A0904010001030000000969
:1001E000211101000122BC000705820320000A1230
:1001F00001100100000008EDFE6060010001020333
:100200000105010902A10185020901A100050919E1
:1002100001290515002501950575018102950175D6
:100220000381010501093009311581257F9502758A
:1002300008810609381581257F9501750881060515
:100240000C0A38021581257F950175088106C0C00A
:1002500005010980A101850319012AB700150126AE
:10026000B700950175108100C0050C0901A1018539
:100270000419012AA002150126A00295017510811A
:1002800000C005010906A1018505050719E029E758
:10029000150025019508750181020507190029EF50
:1002A0001500250195F07501810205081901290540
:1002B000950575019102950175039101C00501092C
:1002C00006A101050719E029E71500250195087524
:1002D0000181029501750881010507190029FF15A3
:1002E0000026FF00950675088100050819012905FB
:1002F000950575019102950175039101C0001124C6
:100300001FBECFEFD0E2DEBFCDBF04B603FE27C0D5
:100310008091DD029091DE02A091DF02B091E002B7
:100320008730904BA740B04BD1F41092DD02109271
:10033000DE021092DF021092E00214BE84B7877FC3
:1003400084BF0FB6F894A89580916000886180936F
:100350006000109260000FBEE0E0F8EF099511E038
:10036000A0E0B1E0E2EEF1E400E00BBF02C00790D4
:100370000D92A239B107D9F722E0A2E9B1E001C09C
:100380001D92AD3DB207E1F70E94051B0C94C720FA
:100390000C9400000895089581E00895089581E087
:1003A00008950C94CC0108950C94D3011F93CF931E
:1003B000DF9300D000D00F92CDB7DEB749835A83C8
:1003C0006B833091B80189819A8131111DC06623F8
:1003D000B9F02223A9F00E94E611182F682F898115
:1003E0009A810E94921169817A81812F0F900F90DA
:1003F0000F900F900F90DF91CF911F910C94850279
:100400000E94BE11182FEFCF0E94E61169817A81F8
:10041000EDCFFC01262F408151816281738184815F
:100420000C94D601CF93DF93EC0160E00E940902A7
:10043000BE01DF91CF910C94D4010E942A13811147
:1004400002C00E94D1130C9490040C9492040C945A
:10045000CE0181E008950C942902CF93C82F0E9409
:1004600027028C2FCF910C942B0208950E94F90C37
:100470000E9435022FEF84E39CE0215080409040A1
:10048000E1F700C000000C945A150F931F93CF930F
:10049000DF93EC0161E00E9409028C01BE010E9421
:1004A000D101882329F1BE01C8010E945A06882380
:1004B000F9F0BE01C8010E94AC068823C9F0BE0154
:1004C000C8010E94CF07882399F08A81882339F0D8
:1004D00001158CE5180751F00E3D1C4579F0CE0151
:1004E000DF91CF911F910F910C94CF010E943602A2
:1004F00080E0DF91CF911F910F9108950E94D11359
:10050000F7CF90E080E008950895972F70E024E100
:10051000929F600D711D1124FB0198E7899FE00DEA
:10052000F11D1124EE0FFF1FE856FF4F85919491A6
:100530000895FC01EE0FFF1FE857FE4F859194913F
:100540000895CF93DF930E9485020E94B603EC01C9
:10055000811520E5920708F042C0811530E4930729
:1005600008F0BDC0883E910528F5803E910508F051
:100570009DC0883A910588F4853A910508F08FC0AE
:100580008130910509F492C0009709F48FC0049757
:1005900008F08CC0D0E0C0E089C08F3B910508F422
:1005A00089C0805C9109C03CD105A0F30E949902EA
:1005B000EC017CC08115904250F4C11581E0D80750
:1005C00008F074C0C03FD10528F3D0656FC0C115D5
:1005D00090E3D90708F079C0CE019F70E7CF81156D
:1005E00025E5920758F5811534E5930708F0A6C074
:1005F000811542E5940750F4C11581E5D80708F448
:1006000071C0DC2FCC27C16FD06A50C0982F96954F
:1006100096959E0123703327C115D34508F07FC0FE
:10062000C1E0D0E002C0CC0FDD1F2A95E2F720E246
:10063000929FC0011124C82BD92B6FC0C11589E529
:10064000D807A8F4C11598E5D90708F07CC0C115F2
:1006500026E5D20708F09ECF8C2F0E944D04C82FAC
:10066000D0E0DC2FCC27CC27DF71D0621FC0C115B2
:100670003AE5D30708F46CC0CE019056811590423C
:1006800008F088CF8D2F8F710E944D0490E0982F35
:10069000882788279F719C012C2BE901E6CFC55A3A
:1006A000D0E0CD5BDE4FC881D0E0D064CE01DF91D9
:1006B000CF910895C85AD0E0CC0FDD1FCB5EDE4F3E
:1006C0000990D881C02DD464F1CFCE019927D3FFF2
:1006D00003C0EC01D86CEACFEC01D06CE7CFDF703F
:1006E000D06AE4CFCE01E4E096958795EA95E1F7EC
:1006F00083702C2F26952695237090E2299F9001D8
:100700001124382B8C2F8370C1E0D0E002C0CC0FB5
:10071000DD1F8A95E2F7C22BD32BDC68C7CFC1E07F
:10072000D0E002C0CC0FDD1F2A95E2F730E2939FA4
:10073000C0011124C82BD92BDA68B8CFD82FCC2709
:10074000C46FD06AB3CFDC2FCC27C06FD06AAECFD6
:100750008C2F8F700E944D0434E0D695C7953A9542
:10076000E1F7CF709C2FEC01D069A0CF82389105C2
:10077000B1F1B0F48133910509F475C048F48932C0
:10078000910509F469C08A32910509F473C008958E
:100790008533910509F459C08933910501F1089514
:1007A000833E9105A9F138F4803E9105F9F0823E2F
:1007B000910549F10895863E9105A9F1873E91057D
:1007C000C9F1843E910519F52091CF0221FF1FC088
:1007D0008091CE0284FD14C087EE90E008952091B0
:1007E000CE022370A1F080EE90E008952091CE0219
:1007F00020FD47C03091CF0230FF09C024FF44C024
:1008000090E080E004C02091CE0222FDF7CF089551
:100810002091CE0222FD3BC03091CF0230FDE3CFCC
:1008200024FFF5CFEDCF2091CE0223FFF0CF24FDA2
:10083000E7CFD2CF2091CE0223FD2CC03091CF0242
:1008400031FFEECF84EE90E008952091CE0225FF97
:10085000DECF89E290E008952091CE0225FFD7CF28
:1008600085E390E008952091CE0226FFD0CF8AE262
:1008700090E008952091CE0226FFC9CF81E390E059
:10088000089589E390E0089583EE90E0089582EE64
:1008900090E0089586EE90E008959091CE0292FF48
:1008A00006C0282F28712830F9F4877F846093FFD1
:1008B00006C0282F28712831F1F4877E84612091A9
:1008C000CF0220FF06C0382F38713830D9F4877F27
:1008D000816021FF06C0282F28712831D1F4877E3E
:1008E000816194FD877E0895282F24712430F9F6C4
:1008F0008B7F8860DCCF282F2471243101F78B7E19
:100900008861DDCF382F3171313019F78E7F8860E3
:10091000E0CF282F2171213121F78E7E8861E1CF30
:100920000C94CA010C94CB0194E0899FF00111242E
:10093000EE54FD4F60817181828193810895089505
:1009400080EA8A95F1F70895AAE5B1E061E070E0E8
:100950008D91E82FE295EF70F0E041A18F709B013F
:1009600001C0220F8A95EAF7922F9095942391A3C4
:1009700082A1822B82A381E0A036B80749F7A6E4C2
:10098000B1E061E070E08D91E82FE295EF70F0E06A
:1009900041A18F709B0101C0220F8A95EAF7922F27
:1009A0009095942391A382A1822B82A381E0AA3502
:1009B000B80749F7EAE9F2E0A2EBB2E082EB92E095
:1009C00011921192119211921D921D921D921D92DF
:1009D0008E179F07A9F786E00E9493050C941D02CD
:1009E0002F923F924F925F926F927F928F929F923F
:1009F000AF92BF92CF92DF92EF92FF920F931F932D
:100A0000CF93DF933AE5C32E31E0D32E4AE9E42EAB
:100A100042E0F42E10E088248394912CF601819119
:100A20006F01C82FC295CF70D0E099A18F7054018B
:100A300001C0AA0C8A95EAF7892F8A2989A38AA17D
:100A40000A2D009580238AA30E94A004A6E4B1E0A9
:100A500090E080E040E050E0BA012D90E22DE29578
:100A6000EF70F0E020A130E0E22DEF7002C035958C
:100A70002795EA95E2F7412C512C320120FD0CC05C
:100A8000412C512C32014394082E04C0440C551CB7
:100A9000661C771C0A94D2F74429552966297729C0
:100AA000019684319105C9F689A1082309A38AA179
:100AB000A82AAAA2F70180819181A281B381481757
:100AC00059076A077B0769F1408351836283738307
:100AD00081E0182BF4E0EF0EF11C80E6C81681E0EF
:100AE000D80609F09BCF212F46E062EB72E08AE93D
:100AF00092E00E9494050E942502812FDF91CF9100
:100B00001F910F91FF90EF90DF90CF90BF90AF902B
:100B10009F908F907F906F905F904F903F902F901D
:100B2000089580E0D6CF0895FF920F931F93CF933F
:100B3000DF93F82ED92F8B01C42F222349F081E0B7
:100B4000809394010E941B159093930180939201CE
:100B500080919401882399F0809192019091930162
:100B60000E942715069758F0EF2DFD2FD80190E031
:100B700080E0D0E08C179D0744F010929401DF9143
:100B8000CF911F910F91FF900895019111912191A3
:100B900031910D931D932D933D930196EBCFAF9221
:100BA000BF92CF92DF92EF92FF920F931F93CF935A
:100BB000DF937C015B01C42FD22FFC01828188234B
:100BC000F9F0409397010E941B1590939601809332
:100BD000950180E28C0F883008F061C0C77081E019
:100BE00001C0880FCA95EAF7DF91CF911F910F914D
:100BF000FF90EF90DF90CF90BF90AF900C947D0A64
:100C000010919701141340C0809195019091960125
:100C10000E9427156C01B701C5010E946F0FC8160D
:100C2000D90690F5C0E2CD0F1D17B9F080E2810F13
:100C3000883040F4177081E001C0880F1A95EAF7F8
:100C40000E94840AC83048F481E09D2F977001C04B
:100C5000880F9A95EAF70E947D0A802F0E946A0AFF
:100C6000C830E8F4D77081E001C0880FDA95EAF760
:100C7000DF91CF911F910F91FF90EF90DF90CF9078
:100C8000BF90AF900C94840A80E28C0F883038F4C7
:100C9000C77081E001C0880FCA95EAF7E9CFDF91FC
:100CA000CF911F910F91FF90EF90DF90CF90BF9069
:100CB000AF9008950F939C01CB01233F4CE534077F
:100CC00059F1A8F4283DFCE53F0701F1293D4CE529
:100CD0003407D1F1273D3C4591F406E221EE41EE87
:100CE00067ED7CE50E94CF0580E00F910895253FD8
:100CF000FCE53F07E9F0B0F0263F3C45F9F0FC0188
:100D00008281882339F110929701EFCF07E225EE17
:100D100045EE68ED7CE5E6CF06E221EE40EE63EFBE
:100D20007CE5E0CF07E225EE44EE64EF7CE5DACF28
:100D300006E221EE42EE65EF7CE5D4CF07E225EE38
:100D400046EE66EF7CE5CECF08E221E045EE69EDA8
:100D50007CE5C8CF81E0C9CFCF93DF93EC01FB01E5
:100D60008281882309F419C1C230FCE5DF07C0F194
:100D7000C6319CE5D90730F09E012A5F3C452930F9
:100D8000310570F50E9447139093CF028093CE02F5
:100D9000C031ECE5DE0709F4CFC008F05BC0C83015
:100DA0008CE5D80709F4B6C088F5C430ECE5DE0759
:100DB00009F4A8C0C0F4C2308CE5D80709F49CC07F
:100DC0008091CE028260C330DC4509F498C08091E6
:100DD000CE029091CF020E9455130E94F90C80E040
:100DE000DF91CF9108958091CE028061C630ECE50D
:100DF000DE0709F484C08091CE028860C730DC45EC
:100E000008F47DC08091CE02806279C0CC308CE540
:100E1000D80709F489C070F48091CE028C60CA3082
:100E2000ECE5DE0709F46BC008F478C08091CE02CF
:100E30008E7F65C0CE308CE5D80709F479C08091EB
:100E4000CE028B7FCF30DC4508F459C08091CE02B2
:100E50008F7E55C0CB3FECE5DE0709F457C030F577
:100E6000C3318CE5D80709F46FC078F4C131ECE5E3
:100E7000DE0709F465C0C231DC4509F0A8CF0E9445
:100E8000F90C8091CE028F773AC0C5318CE5D80736
:100E900009F462C008F476C08091CF028160CA3F35
:100EA000DC4509F094CF8093CF0291CFCF3FFCE592
:100EB000DF0709F44DC088F48091CF028D7FCD3FCC
:100EC0009CE5D90781F38091CF028E7FCE3FDC4530
:100ED00050F38091CF028360E6CFC130FDE5DF079C
:100EE00009F459C008F444C080E0C230DD4509F07F
:100EF0006ECF0E94D3136BCF8091CE02816080931E
:100F0000CE0265CF8091CE028460F9CF8091CF026E
:100F10008260C9CF8091CE028064F1CF0E94F90C2B
:100F20008091CE028068EBCF8091CE028D7FE7CF9B
:100F30008091CE02877FE3CF8091CE028F7DDFCF7D
:100F40008091CE028F7BDBCF8091CE02837FD7CF83
:100F50008091CF028C7FA7CF8091CE0282FB992710
:100F600090F921E0922790FB82F990FB83F9C7CF9B
:100F70008091CF02982F909591708E7F892B90FB56
:100F800081F991CF0E94F90C9091CE02892F97FBA5
:100F900087F98058B4CF81E0ACCF81E021CFCF93E7
:100FA000DF93EB0186319C4511F50E947B129A81FB
:100FB000992399F08A7A91E009F490E0909398014E
:100FC000811109C089E20E9456120E94C71280E076
:100FD000DF91CF91089585E3F6CF8091980181113B
:100FE00004C089E20E945D12F0CF85E3FBCF81E06F
:100FF000EFCF90939E0180939D010895E0919D0114
:10100000F0919E01309721F00190F081E02D09943C
:1010100080E00895E0919D01F0919E01309799F054
:1010200020911401222359F02091CE0227FF07C0FE
:10103000DC012C9111962C93119725E02C930280C2
:10104000F381E02D09940895E0919D01F0919E01B6
:10105000309739F022E0DC012C930480F581E02DFB
:101060000994089520919B0130919C01281739071C
:1010700071F090939C0180939B01E0919D01F09110
:101080009E01309721F00680F781E02D09940895A4
:101090002091990130919A012817390771F09093A6
:1010A0009A0180939901E0919D01F0919E01309702
:1010B00021F00084F185E02D0994089585B78068BA
:1010C00085BF85B7806885BF0895089508950C94FD
:1010D000650808950C9469080E945E080E946608DD
:1010E0000C94670881E008950C9472080E94121510
:1010F0000E94A4040E94C8150C946A084F925F9243
:101100006F927F929F92AF92BF92CF92DF92EF92B7
:10111000FF920F931F93CF93DF93CDB7DEB72A973C
:101120000FB6F894DEBF0FBECDBF0E94F0040E9440
:101130007408882309F490C040EAA42E41E0B42E3C
:1011400010E000E0902E802F0E9494042B013C01BF
:10115000F501C190D190E190F1905F01C414D504E4
:10116000E604F70409F472C08091690281FD0E94CF
:101170009F04B701A601442555256625772520E063
:10118000C12CD12C7601C394DB01CA018C219D2195
:10119000AE21BF21892B8A2B8B2B09F44FC02E83C4
:1011A0009F824C205D206E207F2081E045284628CC
:1011B000472809F480E088870E941B158160782FFA
:1011C0009A8789874E815F8168858A850E94530945
:1011D000000F111F000F111FF801E056FE4F808114
:1011E0009181A281B3818C259D25AE25BF25808369
:1011F0009183A283B3830E9476180E94FE07909188
:101200009F018917D1F10E94FE0780939F012A96C2
:101210000FB6F894DEBF0FBECDBFDF91CF911F9107
:101220000F91FF90EF90DF90CF90BF90AF909F9085
:101230007F906F905F904F900C942D022F5FCC0C9D
:10124000DD1CEE1CFF1C243109F09ECF0F5F1F4FE9
:101250000630110509F076CF8FEF89838A831B82D0
:101260000E941B158160782F9D838C8349815A8150
:101270006B818D810E945309BECF2A960FB6F894D8
:10128000DEBF0FBECDBFDF91CF911F910F91FF90B9
:10129000EF90DF90CF90BF90AF909F907F906F9036
:1012A0005F904F900895CF93DF93CDB7DEB72B9724
:1012B0000FB6F894DEBF0FBECDBF4F835887698746
:1012C0007A878B871E821D8285E0FE013796DE01BC
:1012D000119601900D928A95E1F749815A816B81AF
:1012E0007C818D819E812B960FB6F894DEBF0FBE58
:1012F000CDBFDF91CF910C94720FFC018081918161
:101300000C942812CF93C82F882309F48BC08238FD
:10131000C1F40E94FE0781FD85C089E30E94561238
:101320000E94C7122FEF81EE94E021508040904040
:10133000E1F700C0000089E30E945D12CF910C9498
:10134000C7128338A1F40E94FE0780FD6BC083E5BD
:101350000E9456120E94C7122FEF81EE94E0215096
:1013600080409040E1F700C0000083E5E5CF84387D
:10137000A1F40E94FE0782FD55C087E40E94561228
:101380000E94C7122FEF81EE94E0215080409040E0
:10139000E1F700C0000087E4CFCF8CEF8C0F813ADB
:1013A00090F46C2F80910001909101010E94EC1348
:1013B000882329F08C2F0E945D120E94C7128C2F67
:1013C0000E945612BBCF80E28C0F883048F4C77061
:1013D00081E001C0880FCA95EAF70E947E12AECF65
:1013E000EBE5EC0FE33040F4F0E0E257FE4F808194
:1013F00090E0CF910C943208E8E5EC0FE73150F41F
:10140000F0E0EE0FFF1FE05AFE4F80819181CF91F7
:101410000C944808C03F30F08C2F0E947017CF9179
:101420000C945B18CF910895882309F452C0823838
:1014300071F40E94FE0781FF4CC089E30E9456129E
:101440000E94C71289E30E945D120C94C712833870
:1014500059F40E94FE0780FF3CC083E50E945612AB
:101460000E94C71283E5EFCF843859F40E94FE072B
:1014700082FF2FC087E40E9456120E94C71287E4A1
:10148000E2CF9CEF980F913AF0F290E2980F9830EB
:1014900050F4877091E001C0990F8A95EAF7892F7F
:1014A0000E948412D2CF9BE5980F933020F490E0F5
:1014B00080E00C94320898E5980F973120F490E082
:1014C00080E00C944808803F20F00E94D8170C94CC
:1014D0005B180895CF93C82F0E948209C93349F43D
:1014E0002FEF87EE93E0215080409040E1F700C05D
:1014F00000008C2FCF910C94140A882321F00E94B5
:101500007E120C94C7120895882321F00E94841241
:101510000C94C7120895BF92CF92DF92EF92FF9280
:101520000F931F93CF93DF936C01D62FC72FFC012E
:10153000058102950F70128111110E949B120E9469
:101540007412E82E882391F01123D1F08C2F807F24
:10155000803421F080E28D0F883090F082E00E948C
:1015600012130E94741291E0E82EE926BC2EB29468
:101570009FE0B922EB2DF0E0E753FF4D0C9468207B
:10158000E12CF4CF0C2F0F70C07F11F00295007F7B
:101590001123A9F0002359F080E28D0F883010F05C
:1015A000D11109C0802F0E947E120E94C7128D2F78
:1015B0000E94820914C0802F0E948E12F6CF8D2FB8
:1015C0000E94140A002359F080E28D0F883010F039
:1015D000D1112CC0802F0E9484120E94C7122B2D83
:1015E0002850330B2430310520F40E94FE070E945E
:1015F0002D02EE2009F49EC10E94701280FD9AC156
:10160000F60112820E946A120E94F610C6010E9420
:10161000BB0C0E946A12DF91CF911F910F91FF9036
:10162000EF90DF90CF90BF900C941711802F0E9405
:101630009412D3CFFC2FFF70FF2EC07FC03219F061
:10164000F29480EFF822DD2369F0D13049F11123C3
:1016500091F1002351F1F601858180FFA8CF8F70B1
:10166000858323C0112381F0011106C00E94AE12B0
:101670008F290E947D0AB3CF0130C1F70E94AE12BC
:101680008F290E94B412ABCF011106C00E94BD1277
:101690008F2D0E94840AA3CF013009F4A0CFF6CF8A
:1016A000112329F0063008F09ACF8F2DE2CF0530B4
:1016B00008F095CFEDCF002359F3D93349F4FFEF6C
:1016C00027EE33E0F15020403040E1F700C0000049
:1016D0008D2F0E94140A83CF8C2F86958695837058
:1016E00069F0813009F07BCF8D2F9C2F9370111101
:1016F00002C090E080E00E94480871CF8D2F9C2F9F
:101700009370111102C090E080E00E94320867CF10
:101710008D2F112329F00E9470170E945B185FCF54
:101720000E94D817FACF8C2F837009F041C0111195
:1017300056CF4D2F429546954770440F440F0D2FBD
:101740000F7010E030E020E0042E04C0000F111FE5
:10175000221F331F0A94D2F760E070E0CB01D4FF60
:101760000FC06FE070E080E090E004C0660F771F6C
:10177000881F991F4A95D2F760957095809590952E
:10178000C695C695C370602B712B822B932BC230EC
:1017900049F058F4C13019F00E94A81020CF0E94DF
:1017A00096101DCF0E94BA101ACF0E94941017CF26
:1017B0008695112311F08C2F8170882309F40FCFA7
:1017C0004D2F429546954770440F440F0D2F0F70D3
:1017D00010E030E020E0042E04C0000F111F221F93
:1017E000331F0A94D2F760E070E0CB01D4FF0FC042
:1017F0006FE070E080E090E004C0660F771F881F04
:10180000991F4A95D2F76095709580959095C695E9
:10181000C695C370602B712B822B932BC23049F07D
:1018200058F4C13019F00E946D11D9CE0E945B119D
:10183000D6CE0E947F11D3CE0E94D010D0CECF70D2
:10184000112329F08C2F0E94F6108D2F12CF8D2F8F
:101850000E94840A8C2F0E941711C1CED23F89F1B9
:1018600060F4D03FC9F0D13F29F1112309F442C0FF
:1018700001119DCE8C2F8F7121C0D33F39F1D43F00
:10188000A1F7112369F1CF718C2F0E94F61063E04C
:101890008C2F0E94FD12A3CE112341F0053008F0D9
:1018A0009ECE8C2F8F710E943A1199CE063008F08F
:1018B00096CEF7CF8C2F8F71112369F20E94F6100C
:1018C0008ECE8C2F8F711123C9F3C5CF112329F030
:1018D0008C2F8F710E94E11082CE0E94DC107FCE8F
:1018E00081E00E941213023008F479CE82E00E9457
:1018F000121375CE002359F0D93309F0E9CE8FEFDA
:1019000097EEE3E081509040E040E1F7DFCE8C2F8E
:101910008F71A1CF4C2F4F706D2FC6010E94810295
:101920000E940C105CCE4C2F4F706D2FC6010E9490
:10193000840255CEDF91CF911F910F91FF90EF90D0
:10194000DF90CF90BF9008950F931F93CF93DF93B5
:10195000EC01688179818A810E9432128C010E9497
:1019600091110E949310B801CE01DF91CF911F9188
:101970000F910C948B0ACF93DF93EC018B819C81A8
:10198000892B29F08881998189238F3F59F4DF9130
:10199000CF910895CE010E94A40CCE01DF91CF918A
:1019A0000C941202CE010E9445028111F3CF0E94D5
:1019B0007412882361F38A81882349F382E0DF91DE
:1019C000CF910C9412130E949B120E94AB120E94A2
:1019D000C7120E9482190E945B1890E080E00E946A
:1019E000320890E080E00C9448080E9464120C9445
:1019F000E30C0E948B120C94F50CE92FE295EF702A
:101A0000E250EE3070F4F0E0E752FF4D0C946820A5
:101A1000803F19F020F4883E20F481E00895843F4F
:101A2000E1F380E00895883EC0F3813FD1F7F5CF20
:101A300093FB882780F908950E9428120C94FD0CCE
:101A4000CF93DF9300D000D00F92CDB7DEB70F90C9
:101A50000F900F900F900F90DF91CF910895CF933B
:101A6000DF9300D000D000D0CDB7DEB726960FB6FA
:101A7000F894DEBF0FBECDBFDF91CF9108951F93C5
:101A8000CF93DF93C091B90116E08091BA018C1316
:101A900004C0DF91CF911F910895D0E01C9FF00109
:101AA0001D9FF00D1124E554FE4F4081518162814C
:101AB0007381848195810E942F0D2196C770E5CF97
:101AC0004091EB015091EC016091ED017091EE01BC
:101AD0008091EF019091F0010C942F0D1F93CF9303
:101AE000DF938091F001807FA9F48091ED0188233C
:101AF00089F08091B901C091BA016091EB017091B8
:101B0000EC01A091EE01B091EF01D62FD72316E0A2
:101B1000C81304C0DF91CF911F91089590E01097F2
:101B200011F0DF3F19F401968770F2CF189F9001F2
:101B3000199F300D1124F901E554FE4F41814713DF
:101B4000F2CF40814613EFCF42814111ECCF438168
:101B500054814A1B5B0B483C510528F78091F001EA
:101B60008F7080618093F001F901E054FE4F808115
:101B70008F70806180838BEE91E00E94BB0CDF91BF
:101B8000CF911F910C943F0DAF92BF92CF92DF92F5
:101B9000EF92FF920F931F93CF93DF93CDB7DEB7F2
:101BA00061970FB6F894DEBF0FBECDBF8C0185E004
:101BB000F801DE011D9601900D928A95E1F7F8017A
:101BC00040815181E2808BEEC82E81E0D82E609159
:101BD000EE017091EF016115710509F461C19091F9
:101BE000EB012091EC01892F82238F3F09F458C12A
:101BF000A380B480F090ED01F501E61BF70BFF2008
:101C000009F4FCC08091F001382F307FE83CF105E9
:101C100008F0B2C0311179C0FE2C251323C09413F3
:101C200021C0E1101FC08F7080618093F0010E947D
:101C3000600DC6010E94BB0C8091F001F801858304
:101C40008F2D61960FB6F894DEBF0FBECDBFDF912A
:101C5000CF911F910F91FF90EF90DF90CF90BF90A9
:101C6000AF900895AB2829F0842F85238F3F09F08A
:101C700033C180E0F82FF170DF2E80FF3CC08091EF
:101C8000B9012091BA0136E0821315C04D875E87F5
:101C90008D859E850E942812292F22952F70223033
:101CA000F0F0243018F59F70F1F0F8019581907FE5
:101CB000D1F4D12C1EC090E0389FF001399FF00D77
:101CC0001124E554FE4F6181651306C060816413E1
:101CD00003C062816E110FC001968770D5CF9F70CF
:101CE00011F0882331F3805E883018F3C8010E9418
:101CF000BB0CFD2CA5CFEE2009F4A2CF8091F00102
:101D000081608093F001F12C9BCF251306C09413C2
:101D100004C0F801EE2009F48DC04D875E878D85E3
:101D20009E850E941C0D882319F1EE2009F18091F7
:101D3000F001803270F02091EB013091EC01388796
:101D40002F831986BB86AA868C87CE0107960E94B0
:101D5000BB0C86E0F801ABEEB1E001900D928A95E4
:101D6000E1F70E946E0D0E94600DFF24F39468CF8E
:101D7000C8010E94BB0CF9CF311113C07A2DB98A6A
:101D8000A88A6E2D89890E94200D8BEE91E00E9419
:101D9000BB0C86E0F60111928A95E9F70E94600D6E
:101DA000B2CF25130FC094130DC0E1100BC0F80182
:101DB0008583C8010E94BB0C86E0F60111928A95CA
:101DC000E9F73ECF4D875E878D859E850E941C0D6D
:101DD000882371F2EE2061F28091F001803208F4E4
:101DE000B8CF2091EB013091EC013A8329831B821B
:101DF000BD82AC828E83CE010196A9CFE83CF1056D
:101E000008F041C0FE2CEE2009F4B2CF25132AC001
:101E1000941328C08091F00180FD1BC0982F907F03
:101E2000C1F0F8018583903F31F0982F907F905F4B
:101E30008F70892B8583C8010E94BB0C86E0F80156
:101E4000ABEEB1E001900D928A95E1F70E94600D32
:101E5000F7CE86E0F801ABEEB1E001900D928A95E5
:101E6000E1F7EECE4D875E878D859E850E941C0D25
:101E700081116FCF8091F00181608093F001C801E2
:101E80000E94BB0CDDCE7A2DB98AA88A6E2D898975
:101E90000E94200D86E0F60111928A95E9F7D6CFCF
:101EA000EE2009F465CF4D875E878D859E850E9463
:101EB0001C0DF82E882309F45BCF86E0F801ABEE09
:101EC000B1E001900D928A95E1F78BEE91E00E94CE
:101ED0007D090E946E0DBACF81E08E25CBCE88ECB5
:101EE00090E008951F93CF93DF93CDB7DEB72C9783
:101EF0000FB6F894DEBF0FBECDBF4F8358876987FA
:101F00007A878B879C87CE0107960E94C40D882311
:101F100069F08A859B85892B39F04F815885842FFC
:101F200085238F3F09F071C016E05FC086E0FE0197
:101F30003796DE01119601900D928A95E1F78A8518
:101F40009B85892B89F38F81988589238F3F61F346
:101F50002091BA0130E0C90101968770992740911C
:101F6000B9014817190671F40E94F90C1092BA01D0
:101F70001092B90186E0EBEEF1E0DF011D928A9547
:101F8000E9F7D2CF96E0929FD001939FB00D112434
:101F9000A554BE4FFE01319601900D929A95E1F73E
:101FA0008093BA010E943F0DBFCF819FC0011124D1
:101FB00085549E4F0E94C40D8823E9F0E091B90139
:101FC0001E9FF0011124E554FE4F40815181628132
:101FD0007381848195810E942F0D8091B90190E0D9
:101FE0000196877099278093B9018091B9019091EA
:101FF000BA018913DACF2C960FB6F894DEBF0FBE64
:10200000CDBFDF91CF911F91089569857A858B852A
:102010009C850E942F0D88CFEF92FF920F931F9304
:10202000CF93DF938C01892B81F0F12CEE24E39484
:10203000E8012196F8018491843770F4843008F027
:102040005FC08130B1F08230A1F1DF91CF911F915B
:102050000F91FF90EF900895853709F44CC008F474
:102060003DC09CE7980F903780F78F770E94140A45
:1020700049C00E5F1F4FFE01849190E2980F983087
:1020800060F48770FE2D01C0FF0F8A95EAF78F2F4D
:102090000E949E120E94C71202C00E9482098F2DC8
:1020A000815030F2EFE9FFE03197F1F700C0000016
:1020B000F7CF0E5F1F4FFE01849190E2980F98308A
:1020C00050F48770FE2D01C0FF0F8A95EAF78F2F1D
:1020D0000E94A412DFCF0E94140AE1CF0E5F1F4FAF
:1020E000FE01C491C150D8F28FE99FE00197F1F74A
:1020F00000C00000F7CF0E5F1F4FFE01F490CFCF5E
:102100000E9482098E01CBCF08950C9484100E9406
:102110008510609340027093410280934202909335
:1021200043020C94E30C08950C9487100F931F93B3
:1021300000914002109141022091420230914302ED
:10214000602B712B822B932B1F910F910C94871076
:102150000F931F930091400210914102209142027F
:102160003091430260237123822393231F910F91A7
:102170000C9487100F931F9300914002109141021D
:1021800020914202309143026027712782279327D2
:102190001F910F910C9487100C9484100C94CC1008
:1021A0000E94CE1060933C0270933D0280933E02E9
:1021B00090933F020C94E30C60E070E0CB010C9430
:1021C000D0100F931F9341E050E060E070E08A016F
:1021D0009B0104C0000F111F221F331F8A95D2F7E5
:1021E000C901B8011F910F910C94D0100F931F9348
:1021F00041E050E060E070E004C0440F551F661FEE
:10220000771F8A95D2F780913C0290913D02A09170
:102210003E02B0913F028A019B01082B192B2A2B09
:102220003B2BC901B8011F910F910C94D0100F9353
:102230001F9341E050E060E070E004C0440F551F80
:10224000661F771F8A95D2F7CB01BA01609570950A
:102250008095909500913C0210913D0220913E02A4
:1022600030913F0260237123822393231F910F91AA
:102270000C94D0100F931F9341E050E060E070E0A9
:1022800004C0440F551F661F771F8A95D2F78091AF
:102290003C0290913D02A0913E02B0913F028A0122
:1022A0009B01082719272A273B27C901B8011F913D
:1022B0000F910C94D0100F931F9300913C0210913A
:1022C0003D0220913E0230913F02602B712B822B08
:1022D000932B1F910F910C94D0100F931F9300918B
:1022E0003C0210913D0220913E0230913F0260235A
:1022F0007123822393231F910F910C94D0100F937D
:102300001F9300913C0210913D0220913E023091BA
:102310003F0260277127822793271F910F910C940A
:10232000D010089524E1929F800D1124982F97706A
:1023300041E001C0440F9A95EAF786958695869507
:1023400095E0899FF0011124EF50FE4F90E080E06E
:1023500070E05191DF0111979B01082E02C0369564
:1023600027950A94E2F72170219525272423252714
:102370002C9301968530910561F7089524E1929F91
:10238000800D1124982F977086958695869525E067
:10239000829FF0011124EF50FE4F50E040E080E0BA
:1023A000219130E0092E02C0369527950A94E2F774
:1023B00021703327042E01C0220F0A94EAF7822BE2
:1023C0004F5F5F4F4530510559F70895BF92CF9247
:1023D000DF92EF92FF920F931F93CF93DF938C01C5
:1023E000C0903C02D0903D02E0903E02F0903F024F
:1023F0008091400290914102A0914202B09143022B
:10240000C82AD92AEA2AFB2ACFE1D0E0BC2ED7017C
:10241000C6010C2E04C0B695A795979587950A948A
:10242000D2F780FD0EC0219788F7B12C8B2DDF915C
:10243000CF911F910F91FF90EF90DF90CF90BF90C1
:102440000895B8018C2F0E94A102019761F3EECF8D
:10245000CF93DF93EC010E94E611BE01DF91CF9193
:102460000C94A1021F93CF93DF93EB019091B801DD
:10247000992331F0CB01DF91CF911F910C94281259
:10248000882379F0CB010E94E611182F682FCE0126
:102490000E949211BE01812FDF91CF911F910C9468
:1024A000A102CB010E94BE11182FF4CF682F80919A
:1024B0000001909101010C946C14682F809100012F
:1024C000909101010C947714809100019091010189
:1024D0000C94821480914402859585958595089584
:1024E000809144028770089590914402977081E032
:1024F00009F480E00895809168020895909168023F
:10250000892B8093680208958095909168029823A2
:10251000909368020895109268020895909167025E
:10252000892B809367020895809590916702982384
:102530009093670208951092670208959091660241
:10254000892B809366020895809590916602982366
:102550009093660208951092660208958091450254
:10256000089508950C94B11290914502981721F0A6
:10257000809345020C94B2120895809145028823FD
:1025800029F01092450280E00C94B2120895E09177
:102590000001F0910101809168028083E0910001C7
:1025A000F0910101808190916702892B8083E091F5
:1025B0000001F0910101808190916602892B808356
:1025C00090914502992381F0E0910001F091010181
:1025D0008081892B808380910001909101010E946C
:1025E000D81381110E94BD128091000190910101C8
:1025F0000C940A0808950C94FA1298E0899F9001AF
:102600001124622B609344020E94F61080914402D0
:102610008595859585950C94FB121092440280E077
:102620000C94FB129091440280958923809344027C
:10263000282F277071F4282F082E000C330B9217C7
:10264000130639F08595859585950E9417110C9490
:102650000D13089590E080E00E948D2021E08C3ED3
:102660009E4F09F020E0822F089582E090E00C94C4
:102670008520682F82E090E00C94932083E090E026
:102680000C948520682F83E090E00C949320CF93E6
:1026900084E090E00E948520C82F81E290E00E94B3
:1026A0008520982F8C2FCF910895CF93C92F682F15
:1026B00084E090E00E9493206C2F81E290E0CF9123
:1026C0000C949320AB01BC018FE090E00C94A5200A
:1026D000AB01BC0183E190E00C94A52060E070E0C8
:1026E000CB010C94681360E070E0CB010E94621390
:1026F0000C946E136CEE7EEF90E080E00E94B120AF
:1027000060E082E090E00E94932060E083E090E04F
:102710000E949320109240021092410210924202B5
:102720001092430260E084E090E00E94932060E019
:1027300081E290E00E94932060E085E090E00E94BA
:10274000932060E086E090E00E9493206FEF87E0A6
:1027500090E00E94932040E050E0BA0188E090E0D1
:102760000E94A52060E08DE090E00E94932040E070
:1027700050E0BA0188E190E00E94A52060E087E186
:1027800090E00E94932040E050E0BA018CE190E09C
:102790000E94A52060E080E290E00E9493200C94CB
:1027A00073130C947A13682F8EE090E00C949320AE
:1027B000FC01329680911401882321F08091CE0291
:1027C0009EE187FF96E080E0915008F40895219102
:1027D0002223D1F38F5FF8CF662301F120911401FA
:1027E0002223F1F02091CE0227FF1AC0462F4695F2
:1027F000469546954E3190F4677021E030E002C076
:10280000220F331F6A95E2F7840F911DFC0182812C
:1028100090E02823392381E0232B69F480E0089598
:10282000FC01329608962191261721F0E817F90746
:10283000D1F7F4CF81E008959C01FC0132969FEF1F
:1028400080E04191461751F09F3F19F4411101C0BA
:10285000982F8F5F8630A9F79F3F09F40895290FBD
:10286000311D97FD3A95F90162830895FC01329676
:1028700008962191261303C0DF0111971C92E817D7
:10288000F907B9F70895E62FE695E695E695EE3156
:1028900068F4E80FF92FF11D677021E030E001C006
:1028A000220F6A95EAF78281822B82830895E62FB0
:1028B000E695E695E695EE3170F4E80FF92FF11DF7
:1028C000677021E030E001C0220F6A95EAF7209599
:1028D000828128232283089520911401222329F044
:1028E0002091CE0227FD0C9443140C941C142091CB
:1028F0001401222329F02091CE0227FD0C945714B5
:102900000C943614FC01329680911401882351F006
:102910008091CE0287FF06C08EE1DF011D928A956D
:10292000E9F7089586E0F9CF089508950C94951479
:102930000E9496148091D402843049F110926A0268
:1029400088E190E020E40FB6F894A89580936000A9
:102950000FBE2093600080E00E942D020E9496141A
:1029600083B7817F846083BF83B7816083BF78949E
:10297000889583B78E7F83BF0FB6F894A895809112
:102980006000886180936000109260000FBE08951F
:102990000895CF930E9494140E94F0040E94C814DA
:1029A000C0E08C2F0E949404672B682B692B31F4B4
:1029B000CF5FC630B1F780E0CF91089581E0FCCFC2
:1029C00008950C94E0140E94F90C0E94FE070E94E6
:1029D0002D020C94E1141F921FB61F9211248F93A5
:1029E0009F93AF93BF9380916A02811113C080912E
:1029F000CA029091CB02A091CC02B091CD02419637
:102A0000A11DB11D8093CA029093CB02A093CC026A
:102A1000B093CD02BF91AF919F918F911F901FBE38
:102A20001F90189582E084BD93E095BD9AEF97BD05
:102A300080936E0008952FB7F8948091CA02909108
:102A4000CB02A091CC02B091CD022FBF08959C0182
:102A50004FB7F8948091CA029091CB02A091CC021A
:102A6000B091CD024FBF821B930B089578941F92B3
:102A70001FB61F9211248F939F93AF93BF938091A2
:102A8000CA029091CB02A091CC02B091CD020196E6
:102A9000A11DB11D8093CA029093CB02A093CC02DA
:102AA000B093CD02BF91AF919F918F911F901FBEA8
:102AB0001F90189581E08093E00080E28093D80019
:102AC0001092C9008FE19EE40197F1F700C0000069
:102AD00087E090EBDC018093DD029093DE02A0930F
:102AE000DF02B093E00288E19CE00FB6F894A8956D
:102AF000809360000FBE90936000FFCF8F929F92F3
:102B0000AF92BF92EF92FF920F931F93CF93C0E0CB
:102B1000E82EF12C8C2F0E9494044B015C0110E0F4
:102B200000E0D501C401002E04C0B695A795979585
:102B300087950A94D2F780FD13C00F5F1F4F0431B1
:102B4000110579F7CF5FC63029F780E0CF911F914B
:102B50000F91FF90EF90BF90AF909F908F9008954E
:102B6000602F7C2F80E00E948502E816F90629F785
:102B700081E0ECCFCF93C82F8CE20E947E15882392
:102B800021F08C2FCF910C947E1580E0CF91089589
:102B9000CF930E942A13811102C00E94D113C5E66F
:102BA00008C00E94F0048FE39CE90197F1F700C090
:102BB0000000C150B1F789E20E94BA1581110BC122
:102BC0008AE20E94BA1581110E94D11385E00E9409
:102BD000BA1581110E945A150E943513809369021B
:102BE00087E00E94BA15882371F08BE10E94BA1524
:102BF000882309F4CDC090916902892F8D7F91FFC0
:102C0000826080936902809169020E9439130E9458
:102C100047139093CF028093CE0280EE0E94BA15A4
:102C2000882341F09091CE02892F8E7F90FF8160A2
:102C30008093CE0289E30E94BA15882341F09091D7
:102C4000CE02892F8D7F91FF82608093CE0282EE2B
:102C50000E94BA15882341F09091CE02892F8B7F74
:102C600092FF84608093CE0286EE0E94BA1588237C
:102C700041F09091CE02892F877F93FF88608093E7
:102C8000CE0283EE0E94BA15882341F09091CE02C5
:102C9000892F8F7E94FF80618093CE0285E30E940E
:102CA000BA15882341F09091CE02892F8F7D95FF30
:102CB00080628093CE0281E30E94BA15882341F09E
:102CC0009091CE02892F8F7B96FF80648093CE02F5
:102CD00081E10E94BA15882341F09091CE02892F9C
:102CE00097FB87F980588093CE028091CE02909115
:102CF000CF020E94551387E20E94BA15C82F8EE1B9
:102D00000E94BA158111C2608FE10E94BA1581112B
:102D1000C46080E20E94BA158111C86081E20E94FD
:102D2000BA158111C06182E20E94BA158111C06298
:102D300083E20E94BA158111C06484E20E94BA1530
:102D4000882309F442C0C0688C2F0E9442136C2F64
:102D500070E090E080E00E94941060913C027091DD
:102D60003D0280913E0290913F020E94CE108FE082
:102D70000E94BA15882319F081E00E94D31385E1DF
:102D80000E94BA15882339F180E0CF910C94D313B7
:102D90008EE00E94BA15882339F090916902892F3C
:102DA0008B7F92FF84602DCF80E10E94BA159091B5
:102DB0006902882329F0892F877F93FF886021CFBC
:102DC000892F8E7F90FF81601CCFC111BDCF0E94E3
:102DD0003E13682FBDCFCF9108958091710280FF7F
:102DE00012C06091070185E0689FB00111247595BC
:102DF00067957595679560387105A8F5611571053A
:102E0000A1F1862F089581FF09C06091070185E037
:102E1000689FB001112475956795EDCF609107010A
:102E200082FD0AC0809170028823D1F09091060142
:102E300060910701891728F085E0689FB00111248F
:102E4000DACF869FB001112485E0869F9001879F8D
:102E5000300D1124692F70E0C9010E945420CBCF9E
:102E600065E070E0CECF8FE7089581E0089580910E
:102E7000710280FF0CC06091030170E07595679549
:102E8000759567956115710549F1862F089581FF44
:102E900006C06091030170E075956795F3CF60916E
:102EA000030182FD0BC090916F029923A1F0609104
:102EB000020180910301961738F0682F70E06038A6
:102EC000710500F38FE70895899FC001112470E018
:102ED0000E945420F4CF61E070E0D7CF81E00895E4
:102EE000803F31F40E94ED1681958093750208951C
:102EF000813F19F40E94ED16F8CF823F31F40E9411
:102F0000ED168195809374020895833F19F40E9411
:102F1000ED16F8CF893F29F40E9437178093760287
:102F200008958A3F21F40E9437178195F7CF8B3F90
:102F300031F40E94371781958093770208958C3F72
:102F400019F40E943717F8CF843F31F4809173024F
:102F50008160809373020895853F21F4809173020C
:102F60008260F7CF863F21F4809173028460F1CFB5
:102F7000873F21F4809173028860EBCF883F21F472
:102F8000809173028061E5CF8D3F31F480917102B1
:102F900081608093710208958E3F21F480917102C7
:102FA0008260F7CF8F3FB9F7809171028460F1CFD3
:102FB00090917402803F59F48091750287FF0DC093
:102FC0001092750291110BC01092700208C0813FDF
:102FD00081F48091750218169CF3992381F08091F9
:102FE000760290917702892B09F064C010926F02EB
:102FF0000895823F49F497FFF0CF109274028091B8
:1030000075028111ECCFE0CF833F19F41916ACF3B0
:10301000E4CF20917602893F29F41216F4F610923B
:103020007602DBCF8A3F19F427FFD7CFF8CF209164
:1030300077028B3F29F427FFD0CF10927702CDCFB4
:103040008C3F19F41216CCF3C8CF843F31F4809131
:1030500073028E7F80937302C0CF853F21F48091ED
:1030600073028D7FF7CF863F21F4809173028B7FAF
:10307000F1CF873F21F480917302877FEBCF883FA8
:1030800021F4809173028F7EE5CF8D3F31F48091E2
:1030900071028E7F80937102A0CF8E3F21F48091C8
:1030A00071028D7FF7CF8F3F09F097CF809171022A
:1030B0008B7FF0CF08950E941B159C0190917402A4
:1030C00080917502982B21F030936E0220936D024F
:1030D0009091760280917702982B21F030936C02C8
:1030E00020936B0282E792E00C942408EF92FF9207
:1030F0000F931F93CF93DF9300D000D000D0CDB7B4
:10310000DEB786E0E2E7F2E0DE01119601900D9273
:103110008A95E1F7E0907402F090750200917602D2
:10312000109177021092740210927502109276023A
:10313000109277028E2D8F2991F080916D029091DF
:103140006E020E942715AC0190917002992309F438
:103150003FC0809108018417150608F447C0802FEE
:10316000812B91F080916B0290916C020E94271547
:10317000AC0190916F02992309F477C0809104010A
:103180008417150608F47FC080917402909175022F
:10319000892B90917602892B90917702892B11F0DF
:1031A0000E945B1886E0FE013196A2E7B2E0019032
:1031B0000D928A95E1F726960FB6F894DEBF0FBE02
:1031C000CDBFDF91CF911F910F91FF90EF900895A8
:1031D000209109018AE0289F9001112424173507C6
:1031E00008F0BDCF9F5F9093700202C09F3FD1F760
:1031F000EE2059F00E94ED169FEF1E140CF491E0A2
:10320000899F802D112480937402FF2059F00E9421
:10321000ED169FEF1F140CF491E0899F802D11246F
:103220008093750230917402332309F498CF209172
:103230007502222309F493CF45EB3403C001112416
:10324000992359F09093740245EB240390011124C3
:10325000332339F03093750282CF81E0809374027A
:10326000F3CF81E0809375027ACF209105018AE047
:10327000289F900111242417350708F085CF9F5F00
:1032800090936F0202C09F3FD1F7002359F00E9434
:1032900037179FEF10160CF491E0899F802D1124B1
:1032A00080937602112359F00E9437179FEF111671
:1032B0000CF491E0899F802D112480937702309146
:1032C0007602332309F460CF20917702222309F498
:1032D0005BCF45EB3403C0011124992359F090933F
:1032E000760245EB240390011124332339F0309307
:1032F00077024ACF81E080937602F3CF81E080931A
:10330000770242CF86E0E2E7F2E0DF011D928A9584
:10331000E9F71092700210926F02109271020895F4
:10332000809198020895CF93DF9300D00F92CDB78C
:10333000DEB79091D402943019F589837B836A8338
:1033400082E08093E9008FEF9091E800815095FD35
:1033500006C095ED9A95F1F700008111F5CF8091A7
:10336000E80085FF0DC050E040E063E070E0CE0172
:1033700001960E94BA1B8091E8008E778093E80046
:103380000F900F900F90DF91CF910895BC0184E0D2
:103390000C949319BC0183E00C9493199C0182E076
:1033A0008093E9009FEF8091E800915085FD06C071
:1033B00085ED8A95F1F700009111F5CF8091E80035
:1033C00085FF0CC050E040E066E070E0C9010E945B
:1033D000BA1B8091E8008E778093E8000895CF9320
:1033E000DF93EC01809114018823B1F18091CE022A
:1033F00087FF32C060E282E08093E9008FEF909116
:10340000E800815095FD06C095ED9A95F1F7000012
:103410008111F5CF8091E80085FF1BC080911401D8
:1034200070E050E040E0811104C050E040E068E00E
:1034300070E0CE010E94BA1B8091E8008E778093E5
:10344000E80080E2FE01A8E7B2E001900D928A95C3
:10345000E1F7DF91CF91089568E081E0CDCF8091D1
:10346000D302811109C00E94481D0E94AA1D8091AB
:10347000E20084608093E20008951092D3020895E0
:10348000089508950C94E31442E061EC81E00E94F9
:10349000C41C42E261EC82E00C94C41C8091D60210
:1034A000833009F45FC030F48130C1F1823009F417
:1034B0009BC008958A3009F487C08B3009F46DC031
:1034C000893009F04EC08091D502813209F049C09F
:1034D0008091D9029091DA02029708F042C080915F
:1034E000E800877F8093E8008091E80082FF35C084
:1034F0008091F2009091F300029729F48091F100FD
:103500008B7F813021F48091F1008093980280912B
:10351000E8008B778093E8000C94F81C8091D5022A
:10352000813AF9F48091E800877F8093E8008091E8
:10353000D9029091DA02892B61F460E288E792E087
:1035400070E00E94091C8091E8008B778093E8006E
:10355000089560E090E080E0F3CF8091D402811183
:10356000C3CF08958091D502813AD9F78091D902CD
:103570009091DA02892BA9F78091E800877F8093E8
:10358000E8008091E80080FFFCCF809114018093D7
:10359000F1008091E8008E77BDCF8091D502813215
:1035A00001F78091D9029091DA02892BD1F68091AE
:1035B000E800877F8093E8000E94F81C8091D70282
:1035C000809314010C94F90C8091D502813249F654
:1035D0008091E800877F8093E8000E94F81C80912A
:1035E000D8028093990208958091D502813A09F01A
:1035F000B8CF8091E800877F8093E8008091E80051
:1036000080FFFCCF80919902C2CF84B7877F84BFAF
:103610000FB6F894A895809160008861809360004F
:10362000109260000FBE80E890E00FB6F89480938F
:103630006100909361000FBE0E946C080E94481DBB
:103640000E94AA1D8091E20084608093E200789439
:103650000E9439200E9476088AE091E00E94F907D2
:103660008091D402853019F00E947E08F9CF0E9423
:1036700098148091D202882399F30E94C914882358
:1036800079F30E94A41BECCF0C94461B292F3327FF
:103690002330310519F168F42130310509F44AC0AD
:1036A0002230310509F44BC090E080E030E020E0AA
:1036B00028C02132310579F122323105A9F780E4A1
:1036C00090E02DEB32E061157105D9F08CEB90E0C4
:1036D00021E032E061307105A1F0E6CF9927813019
:1036E000910599F0009741F08230910589F0039798
:1036F000D9F6E8E8F1E002C0E0EBF1E0849190E077
:103700009F01FA01318320830895E8E9F1E0F6CFC3
:10371000EEE8F1E0F3CF89E090E026EC31E06115CE
:10372000710579F389E090E02FED31E061307105AA
:1037300041F3BACF82E190E02FEE31E0E2CF8BE3AC
:1037400090E024EB31E0DDCF84E189BD86E189BDE5
:1037500009B400FEFDCF8091D8008F7D8093D80002
:103760008091E00082608093E0008091E00081FD24
:10377000FCCF0895AF92BF92CF92DF92FF920F934A
:103780001F93CF93DF936C01EB018A010E94171DF9
:10379000F82E811123C00115110539F0F80180813F
:1037A0009181C81BD90BC80ED91EB12CA12C209712
:1037B000A9F08091E80085FD22C08091E8008E7715
:1037C0008093E80001151105A1F0F8018081918135
:1037D000A80EB91EB182A08285E0F82E8F2DDF9150
:1037E000CF911F910F91FF90DF90CF90BF90AF903E
:1037F00008950E94171D8823D1F2F82EEFCFF6010D
:1038000081916F018093F1002197FFEFAF1ABF0AFA
:10381000CECFFC018091DB029091DC0286179707E6
:10382000A0F06115710529F49091E8009E779093BE
:10383000E80090E06115710551F4911108C0809184
:10384000E80082FF33C080E00895BC01F2CF809190
:10385000D4028823B9F18530B9F18091E80083FD65
:103860002FC08091E80082FDEACF8091E80080FFC0
:10387000E1CF2091F2003091F3006115710519F04C
:103880002830310558F091E02830310509F090E0FA
:103890002091E8002E772093E800CCCF819180938F
:1038A000F100615071092F5F3F4FE7CF8091D40243
:1038B000882341F0853041F08091E80083FFBFCF3D
:1038C00081E0089582E0089583E00895FC018091ED
:1038D000DB029091DC0286179707A0F06115710555
:1038E00029F48091E8008E778093E80090E06115DC
:1038F000710551F4911108C08091E80082FF34C035
:1039000080E00895BC01F2CF8091D4028823C1F1F8
:103910008530C1F18091E80083FD30C08091E800DE
:1039200082FDEACF8091E80080FFE1CF2091F20094
:103930003091F3006115710519F02830310558F008
:1039400091E02830310509F090E08091E8008E7711
:103950008093E800CCCF84918093F1003196615040
:1039600071092F5F3F4FE6CF8091D402882341F049
:10397000853041F08091E80083FFBECF81E008955B
:1039800082E0089583E00895982F973028F08F7093
:103990008093E90081E008959093E900242F762F29
:1039A00050E0981731F07091EC002091ED005091AB
:1039B000F00021FD02C09F5FE8CF3091EB003E7F19
:1039C0003093EB003091ED003D7F3093ED0030916E
:1039D000EB0031603093EB007093EC002093ED002E
:1039E0005093F0002091EE0027FDE5CF80E0089590
:1039F0008091D50287FF13C08091E80082FF06C046
:103A00008091E8008B778093E80004C08091D40215
:103A10008111F2CF08958091D4028823D9F3809147
:103A2000E80080FFF8CF8091E8008E77ECCF2091FE
:103A3000E4003091E50095E6A9012091EC00822F89
:103A4000817020FF06C08091E80080FF06C080E002
:103A500008952091E80022FD1AC08091D4028823A5
:103A600089F0853089F08091EB0085FD0FC02091B1
:103A7000E4003091E50042175307F9F29150E1F666
:103A800084E0089582E0089583E0089581E0089538
:103A90000E94B91D0E94C11DE0EEF0E080818160AE
:103AA0008083E8EDF0E080818F77808319BCA7EDFB
:103AB000B0E08C918E7F8C9380818F7E808310927A
:103AC000D30208950F931F93CF93DF930E94B91DE4
:103AD0000E94C11DC8EDD0E088818F7788838881DE
:103AE0008068888388818F7D8883E7EDF0E080811E
:103AF0008068808319BC1092D4021092D002109278
:103B0000D2021092D10200EE10E0F80180818B7F8A
:103B1000808388818160888342E060E080E00E9449
:103B2000C41CE1EEF0E080818E7F8083E2EEF0E065
:103B3000808181608083808188608083F8018081BA
:103B40008E7F8083888180618883DF91CF911F91F0
:103B50000F910895E8EDF0E080818F7E8083E7ED9E
:103B6000F0E080818160808381E08093D3020C94B7
:103B7000621DE8EDF0E080818C7F80831092E2008E
:103B800008951092DA001092E10008951F920F92AA
:103B90000FB60F9211240BB60F922F933F934F93B2
:103BA0005F936F937F938F939F93AF93BF93EF93A5
:103BB000FF938091E10082FF0BC08091E20082FFC1
:103BC00007C08091E1008B7F8093E1000E94382044
:103BD0008091DA0080FF19C08091D80080FF15C065
:103BE0008091DA008E7F8093DA008091D90080FF87
:103BF00098C084E189BD86E189BD09B400FEFDCF8E
:103C000081E08093D4020E942F1A8091E10080FF0E
:103C100019C08091E20080FF15C08091E2008E7F84
:103C20008093E2008091E20080618093E2008091C5
:103C3000D80080628093D80019BC85E08093D402BC
:103C40000E94411A8091E10084FF2BC08091E20024
:103C500084FF27C084E189BD86E189BD89B5982F9D
:103C6000917080FFFBCF8091D8008F7D8093D8002A
:103C70008091E1008F7E8093E1008091E2008F7E51
:103C80008093E2008091E20081608093E200809165
:103C9000D002882309F44BC084E08093D4020E94B0
:103CA000421A8091E10083FF29C08091E20083FFE6
:103CB00025C08091E100877F8093E10082E08093BE
:103CC000D4021092D0028091E1008E7F8093E100B7
:103CD0008091E2008E7F8093E2008091E20080611B
:103CE0008093E20042E060E080E00E94C41C80918A
:103CF000F00088608093F0000E94401AFF91EF91DD
:103D0000BF91AF919F918F917F916F915F914F91F3
:103D10003F912F910F900BBE0F900FBE0F901F90F1
:103D2000189519BC1092D4020E943D1A6ECF809152
:103D3000E30087FD93E09093D402B1CF1F920F92DE
:103D40000FB60F9211240BB60F922F933F934F9300
:103D50005F936F937F938F939F93AF93BF93CF9313
:103D6000DF93EF93FF93D091E900DF708091EC0037
:103D7000C82FC17080FDC0E81092E9008091F0006A
:103D8000877F8093F00078940E94E61E1092E900ED
:103D90008091F00088608093F000CD2BCF70C093AD
:103DA000E900FF91EF91DF91CF91BF91AF919F918A
:103DB0008F917F916F915F914F913F912F910F90D4
:103DC0000BBE0F900FBE0F901F9018951F93CF93AF
:103DD000DF93CDB7DEB7AA970FB6F894DEBF0FBE5C
:103DE000CDBF85ED92E02091F100FC012193CF0140
:103DF000F2E08D3D9F07B9F70E944E1A8091E800CE
:103E000083FF1EC18091D5029091D6029A3008F0AE
:103E100017C1E92FF0E0E951FF4D0C94682080387C
:103E200099F0823809F00CC18091D9028F708730E7
:103E300008F006C18093E9008091EB0085FB88279C
:103E400080F91092E90006C08091D1029091D202CF
:103E5000911182609091E800977F9093E8008093A1
:103E6000F1001092F1008091E8008E77E5C0882380
:103E700009F4D3C0823009F0E3C08091D7028111E8
:103E8000D6C08091D9028F702FEF280F263008F00E
:103E9000D7C08093E9002091EB0020FFC8C0933089
:103EA00031F48091EB0080628093EB00C0C0909170
:103EB000EB0090619093EB0021E030E001C0220F15
:103EC0008A95EAF72093EA001092EA008091EB00CD
:103ED0008860EACF8111B4C01091D7021F7780911A
:103EE000E3008078812B8093E3008091E800877F56
:103EF0008093E8000E94F81C8091E80080FFFCCFCE
:103F00008091E30080688093E30082E0111183E0F8
:103F10008093D40295C08058823008F091C080917F
:103F2000D7029091D8028C3D23E09207A1F583E05F
:103F30008A838AE289834FB7F894DE01139620E0E2
:103F40003EE051E2E32FF0E050935700E49120FF70
:103F500003C0E295EF703F5FEF708E2F90E0EA3084
:103F6000C0F0C7968D939D932F5F243159F74FBFB3
:103F70008091E800877F8093E8006AE270E0CE01DC
:103F800001960E94091C8091E8008B778093E800DD
:103F900057C0C096E7CF6091D9027091DA02AE01A6
:103FA0004F5F5F4F0E94441BBC01892B09F448C03E
:103FB0009091E800977F9093E80089819A810E9410
:103FC000661CE1CF8038E1F58091E800877F80931F
:103FD000E8008091D0028093F10045CF811130C07C
:103FE0009091D702923060F58091E800877F8093AE
:103FF000E8009093D0020E94F81C8091D0028823A0
:1040000011F084E005C08091E30087FDFACF81E0E4
:104010008093D4020E94441A13C08091D702813049
:1040200079F481E0933009F080E08093D20210921D
:10403000E9008091E800877F8093E8000E94F81CE7
:104040008091E80083FF0AC08091E800877F809319
:10405000E8008091EB0080628093EB00AA960FB697
:10406000F894DEBF0FBECDBFDF91CF911F910895B1
:104070000895CF938091D4028823A1F0C091E900E4
:10408000CF709091EC00892F817090FD80E8C82B53
:104090001092E9008091E80083FD0E94E61ECF7037
:1040A000C093E900CF91089597FB072E16F4009472
:1040B00007D077FD09D00E94712007FC05D03EF49F
:1040C000909581959F4F0895709561957F4F0895C4
:1040D000EE0FFF1F0024001C0BBE0790F691E02D91
:1040E0000994AA1BBB1B51E107C0AA1FBB1FA6173F
:1040F000B70710F0A61BB70B881F991F5A95A9F791
:1041000080959095BC01CD010895F999FECF92BD9F
:1041100081BDF89A992780B50895A8E1B0E042E002
:1041200050E00C94B920262FF999FECF92BD81BDA5
:10413000F89A019700B4021639F01FBA20BD0FB6E5
:10414000F894FA9AF99A0FBE08950396272F0E94C1
:1041500094200E949320252F0E949420242F0C94B9
:1041600094200196272F0E9494200C949320DC0128
:10417000CB01FC01F999FECF06C0F2BDE1BDF89A72
:10418000319600B40D9241505040B8F70895F8941C
:10419000FFCFC20AC20A1A0B1A0B6C0B880BEF0A6C
:1041A000EF0A930B1F0C2E0C2E0C8A0CEF0AEF0A51
:1041B000930C080D080D110D110D130D110D110D9E
:1041C000110D080D080D180D110D110D180D0F1FF3
:1041D000371F2020371F20206A1F8B1F2020E21F3F
:0241E000EE1FD0
:1041E20046022808641E140A321E9019EF19CE19CD
:1041F200CA19C61901E200E900EA00B500B600B723
:1042020000CD008301CC008A019201940121022396
:104212000224022502260227022A02B300B4006FFA
:10422200007000818283956530313233343536C770
:10423200C6F0F7F6F5F4F3F2F166379091929394A3
:10424200E200E900EA00B500B600B700CD00830144
:10425200CC008A0192019401210223022402250248
:10426200260227022A02B300B4006F007000818286
:024272008300C7
:00000001FF
